:100000000C9435000C945D000C945D000C945D0024
:100010000C945D000C945D000C945D000C945D00EC
:100020000C945D000C945D000C945D000C945D00DC
:100030000C945D000C945D000C945D000C945D00CC
:100040000C946C010C945D000C94DC010C94B601D2
:100050000C945D000C945D000C945D000C945D00AC
:100060000C945D000C945D00EE0211241FBECFEFD6
:10007000D8E0DEBFCDBF11E0A0E0B1E0E6E4F6E0FD
:1000800002C005900D92AA31B107D9F721E0AAE18B
:10009000B1E001C01D92A83CB207E1F710E0C5E352
:1000A000D0E004C02197FE010E941B03C433D10796
:1000B000C9F70E940E020C9421030C940000AF9229
:1000C000BF92CF92DF92EF92FF920F931F93CF9345
:1000D000DF936C017B018B01040F151FEB015E01A7
:1000E000AE18BF08C017D10759F06991D601ED913C
:1000F000FC910190F081E02DC6010995892B79F7DB
:10010000C501DF91CF911F910F91FF90EF90DF908C
:10011000CF90BF90AF900895FC01538D448D252F53
:1001200030E0842F90E0821B930B541710F0CF9691
:10013000089501970895FC01918D828D981761F0C3
:10014000A28DAE0FBF2FB11D5D968C91928D9F5FDA
:100150009F73928F90E008958FEF9FEF0895FC01B9
:10016000918D828D981731F0828DE80FF11D858D6C
:1001700090E008958FEF9FEF0895FC01918D228DFF
:10018000892F90E0805C9F4F821B91098F73992784
:1001900008958AE191E00E94BD0021E0892B09F4D5
:1001A00020E0822F089580E090E0892B29F00E94C2
:1001B000C90081110C9400000895FC01A48DA80FC2
:1001C000B92FB11DA35ABF4F2C91848D90E0019699
:1001D0008F739927848FA689B7892C93A089B189B9
:1001E0008C91837080648C93938D848D981306C05A
:1001F0000288F389E02D80818F7D80830895EF92BE
:10020000FF920F931F93CF93DF93EC0181E0888FD0
:100210009B8D8C8D98131AC0E889F989808185FFA0
:1002200015C09FB7F894EE89FF896083E889F98942
:1002300080818370806480839FBF81E090E0DF9144
:10024000CF911F910F91FF90EF900895F62E0B8D97
:1002500010E00F5F1F4F0F731127E02E8C8D8E1152
:100260000CC00FB607FCFACFE889F989808185FFB9
:10027000F5CFCE010E94DD00F1CFEB8DEC0FFD2F0D
:10028000F11DE35AFF4FF0829FB7F8940B8FEA8974
:10029000FB8980818062CFCFCF93DF93EC01888D83
:1002A0008823B9F0AA89BB89E889F9898C9185FDF1
:1002B00003C0808186FD0DC00FB607FCF7CF8C917F
:1002C00085FFF2CF808185FFEDCFCE010E94DD005A
:1002D000E9CFDF91CF9108951F920F920FB60F9241
:1002E00011242F933F938F939F93AF93BF9380914C
:1002F000C4019091C501A091C601B091C701309190
:10030000C30123E0230F2D3758F50196A11DB11D20
:100310002093C3018093C4019093C501A093C601AB
:10032000B093C7018091BF019091C001A091C1011C
:10033000B091C2010196A11DB11D8093BF019093A0
:10034000C001A093C101B093C201BF91AF919F9131
:100350008F913F912F910F900FBE0F901F90189586
:1003600026E8230F0296A11DB11DD2CF1F920F9236
:100370000FB60F9211242F933F934F935F936F9378
:100380007F938F939F93AF93BF93EF93FF938AE1F4
:1003900091E00E94DD00FF91EF91BF91AF919F919D
:1003A0008F917F916F915F914F913F912F910F901E
:1003B0000FBE0F901F9018951F920F920FB60F92BD
:1003C00011242F938F939F93EF93FF93E0912A0132
:1003D000F0912B018081E0913001F091310182FD9B
:1003E0001BC09081809133018F5F8F732091340106
:1003F000821741F0E0913301F0E0E65EFE4F958F09
:1004000080933301FF91EF919F918F912F910F90E6
:100410000FBE0F901F9018958081F4CF789484B50B
:10042000826084BD84B5816084BD85B5826085BDF0
:1004300085B5816085BD80916E00816080936E007E
:100440001092810080918100826080938100809170
:100450008100816080938100809180008160809321
:1004600080008091B10084608093B1008091B000E1
:1004700081608093B00080917A00846080937A00DC
:1004800080917A00826080937A0080917A00816006
:1004900080937A0080917A00806880937A0010922D
:1004A000C100E0912A01F0912B0182E08083E0916C
:1004B0002601F09127011082E0912801F091290195
:1004C00080E1808310923201E0912E01F0912F01A2
:1004D00086E08083E0912C01F0912D018081806184
:1004E0008083E0912C01F0912D01808188608083D0
:1004F000E0912C01F0912D01808180688083E09152
:100500002C01F0912D0180818F7D808388E893E11B
:10051000A0E0B0E08093BB019093BC01A093BD012B
:10052000B093BE018093B7019093B801A093B90135
:10053000B093BA01C0E0D0E02FB7F8948091C40125
:100540009091C501A091C601B091C7012FBF409104
:10055000BB015091BC016091BD017091BE01841B33
:10056000950BA60BB70B4091B7015091B801609164
:10057000B9017091BA0184179507A607B70719F555
:1005800043E050E062E171E08AE191E00E945F00A7
:1005900042E050E066E171E08AE191E00E945F0094
:1005A0002FB7F8948091C4019091C501A091C60124
:1005B000B091C7012FBF8093BB019093BC01A09362
:1005C000BD01B093BE01209709F4B6CF0E94C900C7
:1005D000882309F4B1CF0E940000AECFEAE1F1E038
:1005E0001382128288EE93E0A0E0B0E084839583CA
:1005F000A683B78384E091E09183808385EC90E0CB
:100600009587848784EC90E09787868780EC90E0DC
:10061000918B808B81EC90E0938B828B82EC90E0CD
:10062000958B848B86EC90E0978B868B118E128E47
:10063000138E148E0895EE0FFF1F0590F491E02D98
:060640000994F894FFCFBD
:1006460000000000FF005F008C004C01BD009B0015
:0A065600AF00596573000D0A0000A3
:00000001FF
